{
  "contractName": "ConvertLib",
  "abi": [
    {
      "constant": true,
      "inputs": [
        {
          "name": "amount",
          "type": "uint256"
        },
        {
          "name": "conversionRate",
          "type": "uint256"
        }
      ],
      "name": "convert",
      "outputs": [
        {
          "name": "convertedAmount",
          "type": "uint256"
        }
      ],
      "payable": false,
      "stateMutability": "pure",
      "type": "function"
    }
  ],
  "bytecode": "0x6060604052341561000f57600080fd5b60b08061001d6000396000f300606060405260043610603f576000357c0100000000000000000000000000000000000000000000000000000000900463ffffffff16806396e4ee3d146044575b600080fd5b606160048080359060200190919080359060200190919050506077565b6040518082815260200191505060405180910390f35b60008183029050929150505600a165627a7a723058208ede132776550c06d92da1267b0f8d084dbb2643f06fe92a7941c205ffbc7b010029",
  "source": "pragma solidity ^0.4.17;\r\n\r\nlibrary ConvertLib{\r\n    function convert(uint amount,uint conversionRate) public pure returns (uint convertedAmount)\r\n    {\r\n        return amount * conversionRate;\r\n    }\r\n}\r\n",
  "sourcePath": "C:\\Users\\Thibault\\Desktop\\Code\\MCCP\\MCCP\\contracts\\ConvertLib.sol",
  "compiler": {
    "name": "solc",
    "version": "0.4.19+commit.c4cbbb05.Emscripten.clang"
  },
  "schemaVersion": "1.0.1",
  "updatedAt": "2018-02-22T09:08:25.208Z"
}