{
  "contractName": "ResContract",
  "abi": [
    {
      "constant": true,
      "inputs": [],
      "name": "availabilityCount",
      "outputs": [
        {
          "name": "",
          "type": "uint256"
        }
      ],
      "payable": false,
      "stateMutability": "view",
      "type": "function"
    },
    {
      "constant": true,
      "inputs": [
        {
          "name": "",
          "type": "uint256"
        }
      ],
      "name": "availabilities",
      "outputs": [
        {
          "name": "_provider",
          "type": "address"
        },
        {
          "name": "_booker",
          "type": "address"
        },
        {
          "name": "_resourceId",
          "type": "uint256"
        },
        {
          "name": "_type",
          "type": "uint256"
        },
        {
          "name": "_minDeposit",
          "type": "uint256"
        },
        {
          "name": "_commission",
          "type": "uint256"
        },
        {
          "name": "_freeCancelDateTs",
          "type": "uint256"
        },
        {
          "name": "_startDateTs",
          "type": "uint256"
        },
        {
          "name": "_endDateTs",
          "type": "uint256"
        },
        {
          "name": "_bookingStatus",
          "type": "uint8"
        },
        {
          "name": "_metaDataLink",
          "type": "bytes32"
        }
      ],
      "payable": false,
      "stateMutability": "view",
      "type": "function"
    },
    {
      "constant": false,
      "inputs": [
        {
          "name": "_type",
          "type": "uint256"
        },
        {
          "name": "_minDeposit",
          "type": "uint256"
        },
        {
          "name": "_commission",
          "type": "uint256"
        },
        {
          "name": "_freeCancelDateTs",
          "type": "uint256"
        },
        {
          "name": "_startDateTs",
          "type": "uint256"
        },
        {
          "name": "_endDateTs",
          "type": "uint256"
        },
        {
          "name": "_bookingStatus",
          "type": "uint8"
        },
        {
          "name": "_metaDataLink",
          "type": "bytes32"
        }
      ],
      "name": "publishAvailability",
      "outputs": [
        {
          "name": "status",
          "type": "uint8"
        }
      ],
      "payable": false,
      "stateMutability": "nonpayable",
      "type": "function"
    },
    {
      "constant": true,
      "inputs": [],
      "name": "listAvailabilitiesOverview",
      "outputs": [
        {
          "name": "",
          "type": "uint256[]"
        },
        {
          "name": "",
          "type": "address[]"
        },
        {
          "name": "",
          "type": "address[]"
        },
        {
          "name": "",
          "type": "uint256[]"
        },
        {
          "name": "",
          "type": "uint256[]"
        },
        {
          "name": "",
          "type": "uint8[]"
        }
      ],
      "payable": false,
      "stateMutability": "view",
      "type": "function"
    },
    {
      "constant": true,
      "inputs": [
        {
          "name": "availabilityNumber",
          "type": "uint256"
        }
      ],
      "name": "listAvailabilityDetails",
      "outputs": [
        {
          "name": "",
          "type": "uint256"
        },
        {
          "name": "",
          "type": "uint256"
        },
        {
          "name": "",
          "type": "uint256"
        },
        {
          "name": "",
          "type": "uint256"
        },
        {
          "name": "",
          "type": "uint8"
        },
        {
          "name": "",
          "type": "bytes32"
        }
      ],
      "payable": false,
      "stateMutability": "view",
      "type": "function"
    },
    {
      "constant": false,
      "inputs": [
        {
          "name": "availabilityNumber",
          "type": "uint256"
        }
      ],
      "name": "requestReservation",
      "outputs": [
        {
          "name": "",
          "type": "uint8"
        }
      ],
      "payable": false,
      "stateMutability": "nonpayable",
      "type": "function"
    }
  ],
  "bytecode": "0x6060604052341561000f57600080fd5b610d0b8061001e6000396000f300606060405260043610610078576000357c0100000000000000000000000000000000000000000000000000000000900463ffffffff168063053d7ff21461007d57806309d34762146100ed5780634866e0001461011657806361d7eb53146101a1578063e103381d1461028c578063eab835da1461045e575b600080fd5b341561008857600080fd5b61009e60048080359060200190919050506104a3565b604051808781526020018681526020018581526020018481526020018360038111156100c657fe5b60ff1681526020018260001916600019168152602001965050505050505060405180910390f35b34156100f857600080fd5b61010061055e565b6040518082815260200191505060405180910390f35b341561012157600080fd5b61017d600480803590602001909190803590602001909190803590602001909190803590602001909190803590602001909190803590602001909190803560ff1690602001909190803560001916906020019091905050610564565b6040518082600381111561018d57fe5b60ff16815260200191505060405180910390f35b34156101ac57600080fd5b6101c26004808035906020019091905050610738565b604051808c73ffffffffffffffffffffffffffffffffffffffff1673ffffffffffffffffffffffffffffffffffffffff1681526020018b73ffffffffffffffffffffffffffffffffffffffff1673ffffffffffffffffffffffffffffffffffffffff1681526020018a815260200189815260200188815260200187815260200186815260200185815260200184815260200183600381111561026057fe5b60ff16815260200182600019166000191681526020019b50505050505050505050505060405180910390f35b341561029757600080fd5b61029f6107df565b6040518080602001806020018060200180602001806020018060200187810387528d818151815260200191508051906020019060200280838360005b838110156102f65780820151818401526020810190506102db565b5050505090500187810386528c818151815260200191508051906020019060200280838360005b8381101561033857808201518184015260208101905061031d565b5050505090500187810385528b818151815260200191508051906020019060200280838360005b8381101561037a57808201518184015260208101905061035f565b5050505090500187810384528a818151815260200191508051906020019060200280838360005b838110156103bc5780820151818401526020810190506103a1565b50505050905001878103835289818151815260200191508051906020019060200280838360005b838110156103fe5780820151818401526020810190506103e3565b50505050905001878103825288818151815260200191508051906020019060200280838360005b83811015610440578082015181840152602081019050610425565b505050509050019c5050505050505050505050505060405180910390f35b341561046957600080fd5b61047f6004808035906020019091905050610bea565b6040518082600381111561048f57fe5b60ff16815260200191505060405180910390f35b6000806000806000806000806000806000600160008d8152602001908152602001600020600401549450600160008d8152602001908152602001600020600501549350600160008d8152602001908152602001600020600601549250600160008d815260200190815260200160002060090160009054906101000a900460ff169150600160008d8152602001908152602001600020600a015490508b85858585859a509a509a509a509a509a50505050505091939550919395565b60005481565b6000610160604051908101604052803373ffffffffffffffffffffffffffffffffffffffff168152602001600073ffffffffffffffffffffffffffffffffffffffff16815260200160005481526020018a81526020018981526020018881526020018781526020018681526020018581526020018460038111156105e457fe5b81526020018360001916815250600160008054815260200190815260200160002060008201518160000160006101000a81548173ffffffffffffffffffffffffffffffffffffffff021916908373ffffffffffffffffffffffffffffffffffffffff16021790555060208201518160010160006101000a81548173ffffffffffffffffffffffffffffffffffffffff021916908373ffffffffffffffffffffffffffffffffffffffff16021790555060408201518160020155606082015181600301556080820151816004015560a0820151816005015560c0820151816006015560e0820151816007015561010082015181600801556101208201518160090160006101000a81548160ff021916908360038111156106ff57fe5b021790555061014082015181600a0190600019169055905050600080815480929190600101919050555082905098975050505050505050565b60016020528060005260406000206000915090508060000160009054906101000a900473ffffffffffffffffffffffffffffffffffffffff16908060010160009054906101000a900473ffffffffffffffffffffffffffffffffffffffff16908060020154908060030154908060040154908060050154908060060154908060070154908060080154908060090160009054906101000a900460ff169080600a015490508b565b6107e7610ca3565b6107ef610cb7565b6107f7610cb7565b6107ff610ca3565b610807610ca3565b61080f610ccb565b610817610ca3565b61081f610cb7565b610827610cb7565b61082f610ca3565b610837610ca3565b61083f610ca3565b610847610ca3565b61084f610ccb565b600080546040518059106108605750595b908082528060200260200182016040525098506000546040518059106108835750595b908082528060200260200182016040525097506000546040518059106108a65750595b908082528060200260200182016040525096506000546040518059106108c95750595b908082528060200260200182016040525095506000546040518059106108ec5750595b9080825280602002602001820160405250945060005460405180591061090f5750595b908082528060200260200182016040525093506000546040518059106109325750595b908082528060200260200182016040525092506000546040518059106109555750595b90808252806020026020018201604052509150600090505b600054811015610bc75780898281518110151561098657fe5b90602001906020020181815250506001600082815260200190815260200160002060000160009054906101000a900473ffffffffffffffffffffffffffffffffffffffff1688828151811015156109d957fe5b9060200190602002019073ffffffffffffffffffffffffffffffffffffffff16908173ffffffffffffffffffffffffffffffffffffffff16815250506001600082815260200190815260200160002060010160009054906101000a900473ffffffffffffffffffffffffffffffffffffffff168782815181101515610a5a57fe5b9060200190602002019073ffffffffffffffffffffffffffffffffffffffff16908173ffffffffffffffffffffffffffffffffffffffff168152505060016000828152602001908152602001600020600201548682815181101515610abb57fe5b906020019060200201818152505060016000828152602001908152602001600020600301548582815181101515610aee57fe5b906020019060200201818152505060016000828152602001908152602001600020600701548482815181101515610b2157fe5b906020019060200201818152505060016000828152602001908152602001600020600801548382815181101515610b5457fe5b90602001906020020181815250506001600082815260200190815260200160002060090160009054906101000a900460ff168282815181101515610b9457fe5b906020019060200201906003811115610ba957fe5b90816003811115610bb657fe5b81525050808060010191505061096d565b8888888888869e509e509e509e509e509e50505050505050505050909192939495565b6000806001600084815260200190815260200160002060090160006101000a81548160ff02191690836003811115610c1e57fe5b0217905550336001600084815260200190815260200160002060010160006101000a81548173ffffffffffffffffffffffffffffffffffffffff021916908373ffffffffffffffffffffffffffffffffffffffff1602179055506001600083815260200190815260200160002060090160009054906101000a900460ff169050919050565b602060405190810160405280600081525090565b602060405190810160405280600081525090565b6020604051908101604052806000815250905600a165627a7a723058208e15fc6513f48b450f4fce759771e4a98aa5881102bc9913f205857345cf055d0029",
  "source": "pragma solidity ^0.4.2;\r\n\r\n/* Availabilities implementation */\r\ncontract ResContract {\r\n    \r\n    enum BookingStatus { REQUESTED, REJECTED, CONFIRMED, CANCELLED  }\r\n    struct Availability {\r\n        address                 _provider;  // address of the provider\r\n        address                 _booker;    // address of the booker\r\n        uint                    _resourceId ;   // resource id OR bundle id\r\n        uint                    _type;   // Type of Availability\r\n        uint                    _minDeposit ; // minimum BTU deposit for booking this resource\r\n        uint                    _commission ; // commission amount paid to booker in BTU\r\n        uint                    _freeCancelDateTs; // Limit date for a reservation cancellation\r\n        uint                    _startDateTs;   //availability start date timestamps\r\n        uint                    _endDateTs;   //availability end date timestamps\r\n        BookingStatus           _bookingStatus ; // reservation status\r\n        bytes32                  _metaDataLink; //metadatas\r\n    }\r\n\r\n    uint public availabilityCount;\r\n    mapping (uint => Availability) public availabilities;\r\n\r\n    //Submit one or multiple availability - production implementation should be off-chain\r\n    function publishAvailability ( uint _type, uint _minDeposit, uint _commission, \r\n                                   uint _freeCancelDateTs, uint _startDateTs, \r\n                                   uint _endDateTs, BookingStatus _bookingStatus, bytes32 _metaDataLink)\r\n    public returns (BookingStatus status) \r\n    {\r\n        availabilities[availabilityCount] = Availability( msg.sender, 0x0, availabilityCount, _type, _minDeposit,\r\n                                                          _commission, _freeCancelDateTs, _startDateTs, _endDateTs,\r\n                                                          _bookingStatus, _metaDataLink);\r\n        availabilityCount++;\r\n        return _bookingStatus;\r\n    }\r\n\r\n    //An overview of all availabilities\r\n    function listAvailabilitiesOverview ()\r\n    public constant returns (uint[], address[], address[], \r\n                             uint[], uint[], BookingStatus[])\r\n    {\r\n        uint[] memory              keys = new uint[](availabilityCount);\r\n        address[] memory           providers = new address[](availabilityCount);\r\n        address[] memory           bookers = new address[](availabilityCount);\r\n        uint[] memory              resourceIds = new uint[](availabilityCount);\r\n        uint[] memory              types = new uint[](availabilityCount);\r\n        uint[] memory              startDateTs = new uint[](availabilityCount);\r\n        uint[] memory              endDateTs = new uint[](availabilityCount);\r\n        BookingStatus[] memory     bookingStatuses = new BookingStatus[](availabilityCount);\r\n\r\n        for (uint i = 0 ; i < availabilityCount ; i++) {\r\n            keys[i] = i;\r\n            providers[i] = availabilities[i]._provider;\r\n            bookers[i] = availabilities[i]._booker;\r\n            resourceIds[i] = availabilities[i]._resourceId;\r\n            types[i] = availabilities[i]._type;\r\n            startDateTs[i] = availabilities[i]._startDateTs;\r\n            endDateTs[i] = availabilities[i]._endDateTs;\r\n            bookingStatuses[i] = availabilities[i]._bookingStatus;\r\n        }\r\n        return (keys, providers, bookers,\r\n                resourceIds, types, bookingStatuses);\r\n    }\r\n\r\n    //All details from one availability\r\n    function listAvailabilityDetails (uint availabilityNumber)\r\n    public constant returns (uint, uint, uint,\r\n                             uint, BookingStatus, bytes32)\r\n    {\r\n        uint             minDeposit;\r\n        uint             commission;\r\n        uint             freeCancelDateTs;\r\n        BookingStatus    bookingStatus;\r\n        bytes32          metaDataLink;\r\n\r\n        minDeposit = availabilities[availabilityNumber]._minDeposit;\r\n        commission = availabilities[availabilityNumber]._commission;\r\n        freeCancelDateTs = availabilities[availabilityNumber]._freeCancelDateTs;\r\n        bookingStatus = availabilities[availabilityNumber]._bookingStatus;\r\n        metaDataLink = availabilities[availabilityNumber]._metaDataLink;\r\n        return (availabilityNumber, minDeposit, commission, \r\n                freeCancelDateTs, bookingStatus, metaDataLink);\r\n    }\r\n\r\n    //Request reservation\r\n    function requestReservation (uint availabilityNumber)\r\n    public returns (BookingStatus)\r\n    {\r\n        availabilities[availabilityNumber]._bookingStatus = BookingStatus.REQUESTED;\r\n        availabilities[availabilityNumber]._booker = msg.sender;\r\n        return (availabilities[availabilityNumber]._bookingStatus);\r\n    }\r\n}",
  "sourcePath": "C:\\Users\\Thibault\\Desktop\\Code\\MCCP\\MCCP\\contracts\\ResContract.sol",
  "compiler": {
    "name": "solc",
    "version": "0.4.19+commit.c4cbbb05.Emscripten.clang"
  },
  "schemaVersion": "1.0.1",
  "updatedAt": "2018-02-22T09:08:25.216Z"
}